S01500006C6573736F6E5F31375F6164632E737265632D
S113000012C019C018C017C016C015C014C013C040
S113001012C011C010C00FC00EC00DC00CC00BC068
S11300200AC009C008C011241FBECFE5D4E0DEBF5A
S1130030CDBF02D03DC0E4CF87B3836087BB88B314
S11300408C7F88BB84B3877F84BB86B1806886B984
S113005086B1806286B986B18B7F86B986B18360AA
S113006086B987B1806C87B987B18F7D87B987B12D
S1130070837F87B987B1836087B986B1806486B985
S1130080349BFECF84B195B18935924038F088B362
S1130090816088BB88B38D7F88BB06C088B38E7FA0
S11300A088BB88B3826088BB86B1806186B9E8CF9B
S10700B0F894FFCFEE
S9030000FC
