S01100006C6573736F6E5F33352E73726563B8
S11300001CC036C035C034C033C032C031C030C06B
S11300102FC015C12DC02CC02BC02AC029C028C098
S113002027C026C025C02DC036C03FC04BC054C019
S113003060C06CC078C081C08AC011241FBECFE5E7
S1130040D4E0DEBFCDBF10E0A0E6B0E0E6E6F4E029
S113005002C005900D92A236B107D9F720E0A2E6BE
S1130060B0E001C01D92AB36B207E1F786D1F9C109
S1130070C7CF8A30910508F073C0FC01ED5EFF4FD5
S1130080099482B38F7382BB88B3806F88BB82B3B9
S1130090806382BB089588B38F7688BB82B38F70E8
S11300A082BB88B3806688BB089582B38F7582BB98
S11300B088B38F7B88BB88B3806B88BB82B3806531
S11300C082BB089582B38F7482BB88B3806F88BB70
S11300D082B3806482BB089588B38F7688BB82B371
S11300E08F7682BB88B3806688BB82B3806682BB0E
S11300F0089582B38F7682BB88B38F7D88BB82B329
S1130100806682BB88B3806D88BB089582B38F7785
S113011082BB88B38F7D88BB82B3806782BB88B380
S1130120806D88BB089588B38F7788BB82B38F7046
S113013082BB88B3806788BB089582B38F7782BB04
S113014088B3806F88BB82B3806782BB089582B313
S11301508F7682BB88B3806F88BB82B3806682BB94
S11301600895CF93DF93AC01EC01D695C795D6954E
S1130170C795D695C7959E01A5ECB0E266D1FC0162
S1130180F295E295EF70EF27FF70EF27F0936A0086
S1130190E093690028EE33E0E29FC001E39F900DF5
S11301A0F29F900D11249A01281B390B369527953F
S11301B036952795ABE7B4E148D19695879590930A
S11301C06800809367009A013695279536952795A0
S11301D03CD19C013695279564E6629FC001639FDC
S11301E0900D11249A01281B390BADECBCEC2DD1D8
S11301F0969587959695879596958795909366009D
S1130200809365009A0121D1969587959695879557
S1130210969587959C01220F331F880F991F880F8D
S1130220991F880F991F820F931F9A01281B390B5E
S11302303093640020936300DF91CF9108951F925F
S11302400F920FB60F9211242F933F934F935F9306
S11302506F937F938F939F93AF93BF93EF93FF938A
S11302608091600090916100019789F485B3826068
S113027085BB85B3846085BB85B3886085BB85B346
S11302808E7F85BB8091690090916A00F2DE809137
S1130290600090916100029789F485B3816085BB09
S11302A085B3846085BB85B3886085BB85B38D7F4A
S11302B085BB8091670090916800DBDE80916000CF
S11302C090916100039789F485B3816085BB85B300
S11302D0826085BB85B3886085BB85B38B7F85BB16
S11302E08091650090916600C4DE809160009091D9
S11302F06100049789F485B3816085BB85B382600E
S113030085BB85B3846085BB85B3877F85BB8091BE
S1130310630090916400ADDE809160009091610073
S113032001969093610080936000059734F081E01A
S113033090E09093610080936000FF91EF91BF91F2
S1130340AF919F918F917F916F915F914F913F9169
S11303502F910F900FBE0F901F90189582E080B9D7
S113036081B18C7F81B9089584EA86BF06B607FE01
S1130370FDCF089584E986BF089581B3806F81BB62
S113038082B38F7282BB87B3806F87BB88B38F724F
S113039088BB84B38F6084BB85B38F6085BB82E0E8
S11303A083BF89B7816089BF12BE7894D7DFDCDF51
S11303B080EA83B984E886BF06B607FEFDCF13B88A
S11303C084E886BF06B607FEFDCF88E083B984E8DB
S11303D086BF06B607FEFDCF88E383B984E886BFEF
S11303E006B607FEFDCFC6DF83EC99E00197F1F76F
S11303F000C00000B9DF80EA83B984E886BF06B68E
S113040007FEFDCF13B884E886BF06B607FEFDCF0E
S113041088E083B984E886BF06B607FEFDCFA4DF73
S113042081EA83B984E886BF06B607FEFDCF84E877
S113043086BF06B607FEFDCF83B1809362009ADFC4
S11304408091620090E08DDEFBCFA29FB001B39F4C
S1130450C001A39F01D0B29F700D811D1124911D75
S10904600895F894FFCF9B
S105046601008F
S9030000FC
