:100000001CC036C035C034C033C032C031C030C06F
:100010002FC015C12DC02CC02BC02AC029C028C09C
:1000200027C026C025C02DC036C03FC04BC054C01D
:1000300060C06CC078C081C08AC011241FBECFE5EB
:10004000D4E0DEBFCDBF10E0A0E6B0E0EAEBF7E021
:1000500002C005900D92A236B107D9F720E0A2E6C2
:10006000B0E001C01D92A237B207E1F7E3D1A3C30C
:10007000C7CF8A30910508F073C0FC01ED5EFF4FD9
:10008000099482B38F7382BB88B3806F88BB82B3BD
:10009000806382BB089588B38F7688BB82B38F70EC
:1000A00082BB88B3806688BB089582B38F7582BB9C
:1000B00088B38F7B88BB88B3806B88BB82B3806535
:1000C00082BB089582B38F7482BB88B3806F88BB74
:1000D00082B3806482BB089588B38F7688BB82B375
:1000E0008F7682BB88B3806688BB82B3806682BB12
:1000F000089582B38F7682BB88B38F7D88BB82B32D
:10010000806682BB88B3806D88BB089582B38F7789
:1001100082BB88B38F7D88BB82B3806782BB88B384
:10012000806D88BB089588B38F7788BB82B38F704A
:1001300082BB88B3806788BB089582B38F7782BB08
:1001400088B3806F88BB82B3806782BB089582B317
:100150008F7682BB88B3806F88BB82B3806682BB98
:100160000895CF93DF93AC01EC01D695C795D69552
:10017000C795D695C7959E01A5ECB0E210D3FC01BA
:10018000F295E295EF70EF27FF70EF27F093710083
:10019000E093700028EE33E0E29FC001E39F900DF2
:1001A000F29F900D11249A01281B390B3695279543
:1001B00036952795ABE7B4E1F2D296958795909363
:1001C0006F0080936E009A01369527953695279596
:1001D000E6D29C013695279564E6629FC001639F35
:1001E000900D11249A01281B390BADECBCECD7D231
:1001F00096958795969587959695879590936D009A
:1002000080936C009A01CBD29695879596958795A9
:10021000969587959C01220F331F880F991F880F91
:10022000991F880F991F820F931F9A01281B390B62
:1002300030936B0020936A00DF91CF9108951F9255
:100240000F920FB60F9211242F933F934F935F930A
:100250006F937F938F939F93AF93BF93EF93FF938E
:100260008091600090916100019789F485B382606C
:1002700085BB85B3846085BB85B3886085BB85B34A
:100280008E7F85BB8091700090917100F2DE80912D
:100290006000909161000297A1F485B3816085BBF5
:1002A00085B3846085BB85B3886085BB85B38D7F4E
:1002B00085BB80916E0090916F00DBDE82B3806819
:1002C00082BB8091600090916100039789F485B3AF
:1002D000816085BB85B3826085BB85B3886085BB43
:1002E00085B38B7F85BB80916C0090916D00C1DEE2
:1002F0008091600090916100049789F485B38160DA
:1003000085BB85B3826085BB85B3846085BB85B3BF
:10031000877F85BB80916A0090916B00AADE8091F7
:10032000600090916100019690936100809360005D
:10033000059734F081E090E0909361008093600035
:10034000FF91EF91BF91AF919F918F917F916F91AD
:100350005F914F913F912F910F900FBE0F901F9083
:10036000189582E080B981B18C7F81B9089584EAC3
:1003700086BF06B607FEFDCF089584E986BF0895BF
:1003800083EC99E00197F1F700C00000F0DF8AEA02
:1003900083B984E886BF06B607FEFDCF13B884E8AC
:1003A00086BF06B607FEFDCFE2DF8BEA83B984E89D
:1003B00086BF06B607FEFDCF84EC86BF06B607FEF5
:1003C000FDCF83B18093680081EE94E00197F1F74F
:1003D00000C0000084E886BF06B607FEFDCF83B1EB
:1003E00080936900CADF6091680070E0762F66270D
:1003F00080916900682B709367006093660080E0CD
:1004000090E0DCD020E030E040EA50E465D120E02C
:1004100030EA4FE755E43ED020E030E048EC52E4CB
:100420005BD160936200709363008093640090934B
:100430006500089581B3806F81BB82B38F7282BBE8
:1004400087B3806F87BB88B38F7288BB84B38F609C
:1004500084BB85B38F6085BB82E083BF89B7816031
:1004600089BF12BE78947DDF8BDF6091620070914E
:100470006300809164009091650074D0CB0171DEBF
:100480002FE58AEE90E0215080409040E1F700C0D7
:100490000000EACF0CD0E6C0DED040F0D5D030F07E
:1004A00021F45F3F19F0C7C0511110C1CAC0EBD091
:1004B00098F39923C9F35523B1F3951B550BBB272B
:1004C000AA2762177307840738F09F5F5F4F220FD8
:1004D000331F441FAA1FA9F333D00E2E3AF0E0E8D1
:1004E00030D091505040E695001CCAF729D0FE2F1D
:1004F00027D0660F771F881FBB1F261737074807AF
:10050000AB07B0E809F0BB0B802DBF01FF27935864
:100510005F4F2AF09E3F510568F08DC0D7C05F3F06
:10052000ECF3983EDCF3869577956795B795F7954C
:100530009F5FC9F7880F911D9695879597F9089544
:10054000E1E0660F771F881FBB1F621773078407E0
:10055000BA0720F0621B730B840BBA0BEE1F88F7EF
:10056000E095089598D088F09F5790F0B92F99277B
:10057000B751A0F0D1F0660F771F881F991F1AF0AE
:10058000BA95C9F712C0B13081F09FD0B1E008959B
:100590009CC0672F782F8827B85F39F0B93FCCF31C
:1005A000869577956795B395D9F73EF490958095A4
:1005B000709561957F4F8F4F9F4F0895E89409C0C4
:1005C00097FB3EF490958095709561957F4F8F4F86
:1005D0009F4F9923A9F0F92F96E9BB279395F6959C
:1005E000879577956795B795F111F8CFFAF4BB0F1A
:1005F00011F460FF1BC06F5F7F4F8F4F9F4F16C07E
:10060000882311F096E911C0772321F09EE8872F07
:10061000762F05C0662371F096E8862F70E060E0C3
:100620002AF09A95660F771F881FDAF7880F96953C
:10063000879597F9089597F99F6780E870E060E0E3
:1006400008959FEF80EC089500240A94161617066B
:1006500018060906089500240A94121613061406B3
:1006600005060895092E0394000C11F4882352F016
:10067000BB0F40F4BF2B11F460FF04C06F5F7F4FCE
:100680008F4F9F4F089557FD9058440F551F59F0B5
:100690005F3F71F04795880F97FB991F61F09F3F6F
:1006A00079F087950895121613061406551FF2CF98
:1006B0004695F1DF08C0161617061806991FF1CFE8
:1006C00086957105610508940895E894BB2766270F
:1006D0007727CB0197F908950BD0C4CFB5DF28F069
:1006E000BADF18F0952309F0A6CFABCF1124EECFD7
:1006F000CADFA0F3959FD1F3950F50E0551F629F7D
:10070000F001729FBB27F00DB11D639FAA27F00D6A
:10071000B11DAA1F649F6627B00DA11D661F829F91
:100720002227B00DA11D621F739FB00DA11D621F76
:10073000839FA00D611D221F749F3327A00D611D93
:10074000231F849F600D211D822F762F6A2F112475
:100750009F5750408AF0E1F088234AF0EE0FFF1FC8
:10076000BB1F661F771F881F91505040A9F79E3FFF
:10077000510570F060CFAACF5F3FECF3983EDCF3F9
:10078000869577956795B795F795E7959F5FC1F73C
:10079000FE2B880F911D9695879597F90895A29F36
:1007A000B001B39FC001A39F01D0B29F700D811D06
:0A07B0001124911D0895F894FFCF65
:0207BA0001003C
:00000001FF
