S01300006C6573736F6E5F31315F322E737265632B
S113000012C02CC02BC02AC029C028C027C026C0BB
S113001025C06BC023C022C021C020C01FC01EC089
S11300201DC01CC01BC011241FBECFE5D4E0DEBF21
S1130030CDBF10E0A0E6B0E0E4EFF1E002C005902F
S11300400D92A437B107D9F720E0A4E7B0E001C0CE
S11300501D92AC37B207E1F7ABD0CAC0D1CFCF9372
S1130060DF93AC01EC01D695C795D695C7959E0153
S1130070ABE7B4E1B1D0FC01F695E795F0937B00D2
S1130080E0937A0024E62E9FC0012F9F900D112447
S11300909A01281B390BADECBCEC9ED09695879544
S11300A09695879596958795909379008093780097
S11300B09A0192D09695879596958795969587956A
S11300C09C01220F331F880F991F880F991F880FD7
S11300D0991F820F931F9A01281B390B30937700C5
S11300E020937600DF91CF9108951F920F920FB65F
S11300F00F9211248F939F93EF93FF938091740039
S11301009091750001969093750080937400049704
S113011034F081E090E090937500809374008FE751
S113012082BF80917400909175008130910589F4AB
S113013088B3866088BB88B38E7F88BBE0917A00E1
S1130140F0917B00EE0FFF1FE05AFF4F808182BBCE
S113015026C08230910589F488B3856088BB88B352
S11301608D7F88BBE0917800F0917900EE0FFF1F3E
S1130170E05AFF4F808182BB12C0039781F488B399
S1130180836088BB88B38B7F88BBE0917600F09155
S11301907700EE0FFF1FE05AFF4F808182BBFF9173
S11301A0EF919F918F910F900FBE0F901F90189514
S11301B08FEF81BB12BA87B3876087BB88B3876030
S11301C088BB82E083BF12BE89B7816089BF7894FF
S11301D083E192E044DFFCCFA29FB001B39FC00152
S11301E0A39F01D0B29F700D811D1124911D08950C
S10701F0F894FFCFAD
S11301F43F0006005B004F0066006D007D000700B1
S10702047F006F0004
S9030000FC
