:1000000012C02DC02BC02AC029C028C027C026C0BE
:1000100025C024C023C022C021C020C01FC01EC0D4
:100020001DC01CC01BC011241FBECFE5D4E0DEBF25
:10003000CDBF10E0A0E6B0E0E2E5F2E002C005903E
:100040000D92A437B107D9F720E0A4E7B0E001C0D2
:100050001D92A437B207E1F71ED0F9C0D1CF1F928D
:100060000F920FB60F9211242F938F939F9380912D
:100070006C0088BB2FE181EA97E0215080409040DE
:10008000E1F700C000009F918F912F910F900FBE5C
:100090000F901F9018958FEF87BB18BA81B3837F9D
:1000A00081BB82B38C6082BB85B7826085BF85B718
:1000B0008E7F85BF8BB780648BBF7894E0E6F0E0DD
:1000C000808188BB2FE58AEE90E0215080409040EF
:1000D000E1F700C00000828188BB2FE58AEE90E046
:1000E000215080409040E1F700C00000848188BB2F
:1000F0002FE58AEE90E0215080409040E1F700C06B
:100100000000868188BB2FE58AEE90E02150804078
:100110009040E1F700C00000808588BB2FE58AEEA3
:1001200090E0215080409040E1F700C000008285BF
:1001300088BB2FE58AEE90E0215080409040E1F7A7
:1001400000C00000848588BB2FE58AEE90E0215036
:1001500080409040E1F700C00000868588BB2FE515
:100160008AEE90E0215080409040E1F700C000000E
:10017000808988BB2FE58AEE90E021508040904036
:10018000E1F700C00000828988BB2FE58AEE90E08D
:10019000215080409040E1F700C00000808988BB7A
:1001A0002FE58AEE90E0215080409040E1F700C0BA
:1001B0000000868588BB2FE58AEE90E021508040C4
:1001C0009040E1F700C00000848588BB2FE58AEEEF
:1001D00090E0215080409040E1F700C0000082850F
:1001E00088BB2FE58AEE90E0215080409040E1F7F7
:1001F00000C00000808588BB2FE58AEE90E021508A
:1002000080409040E1F700C00000868188BB2FE568
:100210008AEE90E0215080409040E1F700C000005D
:10022000848188BB2FE58AEE90E021508040904089
:10023000E1F700C00000828188BB2FE58AEE90E0E4
:10024000215080409040E1F700C0000037CFF89483
:02025000FFCFDE
:100252003F0006005B004F0066006D007D00070056
:040262007F006F00AA
:00000001FF
