S01000006C6573736F6E5F382E73726563E9
S113000012C02CC02BC02AC029C028C027C026C0BB
S113001025C024C023C022C021C020C01FC01EC0D0
S11300201DC01CC01BC011241FBECFE5D4E0DEBF21
S1130030CDBF10E0A0E6B0E0E4EAF1E002C0059034
S11300400D92A437B107D9F720E0A4E7B0E001C0CE
S11300501D92AA37B207E1F748D0A2C0D1CFCF93FF
S1130060DF93AC01EC01D695C795D695C7959E0153
S1130070ABE7B4E189D0FC01F695E795F0937900FC
S1130080E093780024E62E9FC0012F9F900D112449
S11300909A01281B390BADECBCEC76D0969587956C
S11300A0969587959695879590937700809376009B
S11300B09A016AD096958795969587959695879592
S11300C09C01220F331F880F991F880F991F880FD7
S11300D0991F820F931F9A01281B390B30937500C7
S11300E020937400DF91CF9108958FEF81BB12BAF2
S11300F087B3876087BB88B3887F88BB8BE591E033
S1130100AEDF88B3897F88BB88B3816088BBE09108
S11301107800F0917900EE0FFF1FE05AFF4F8081C5
S113012082BB8DEE92E00197F1F700C0000088B326
S11301308A7F88BB88B3826088BBE0917600F091A7
S11301407700EE0FFF1FE05AFF4F808182BB8DEED8
S113015092E00197F1F700C0000088B38C7F88BB60
S113016088B3846088BBE0917400F0917500EE0F51
S1130170FF1FE05AFF4F808182BB8DEE92E0019712
S1130180F1F700C00000BACFA29FB001B39FC00135
S1130190A39F01D0B29F700D811D1124911D08955C
S10701A0F894FFCFFD
S11301A43F0006005B004F0066006D007D00070001
S10701B47F006F0055
S9030000FC
