:1000000012C019C018C017C016C015C014C013C044
:1000100013C011C010C00FC00EC00DC00CC00BC06B
:100020000AC009C008C011241FBECFE5D4E0DEBF5E
:10003000CDBF18D08DC0E4CF1F920F920FB60F9294
:1000400011248F939F9386EF92EC9DBD8CBD95B349
:1000500081E0892785BB9F918F910F900FBE0F90F4
:100060001F9018958FEF81BB12BA84B3816084BB57
:1000700085B38E7F85BB83E08EBD86EF92EC9DBD00
:100080008CBD89B7846089BF789412BA2FE58AEE57
:1000900090E0215080409040E1F700C0000081E0F6
:1000A00082BB2FE58AEE90E0215080409040E1F73E
:1000B00000C0000083E082BB2FE58AEE90E0215073
:1000C00080409040E1F700C0000087E082BB2FE550
:1000D0008AEE90E0215080409040E1F700C000009F
:1000E0008FE082BB2FE58AEE90E021508040904067
:1000F000E1F700C000008FE182BB2FE58AEE90E0BF
:10010000215080409040E1F700C000008FE382BBA7
:100110002FE58AEE90E0215080409040E1F700C04A
:1001200000008FE782BB2FE58AEE90E021508040EF
:100130009040E1F700C000008FEF82BB2FE58AEE10
:1001400090E0215080409040E1F700C000009DCF3A
:04015000F894FFCF51
:00000001FF
