S01800006C6573736F6E5F375F6269746F7065722E737265638E
S113000012C02CC02BC02AC029C028C027C026C0BB
S113001025C024C023C022C021C020C01FC01EC0D0
S11300201DC01CC01BC011241FBECFE5D4E0DEBF21
S1130030CDBF10E0A0E6B0E0EAE8F2E002C005902F
S11300400D92A437B107D9F720E0A4E7B0E001C0CE
S11300501D92AC37B207E1F770D015C1D1CFCF9361
S1130060DF93AC01EC01D695C795D695C795D69587
S1130070C7959E01A5ECB0E2FAD0FC01F295E29599
S1130080EF70EF27FF70EF27F0937B00E0937A0087
S113009028EE33E0E29FC001E39F900DF29F900DA4
S11300A011249A01281B390B3695279536952795E7
S11300B0ABE7B4E1DCD09695879590937900809373
S11300C078009A013695279536952795D0D09C01CE
S11300D03695279564E6629FC001639F900D1124B5
S11300E09A01281B390BADECBCECC1D096958795D1
S11300F0969587959695879590937700809376004B
S11301009A01B5D0969587959695879596958795F6
S11301109C01220F331F880F991F880F991F880F86
S1130120991F820F931F9A01281B390B3093750076
S113013020937400DF91CF9108958FEF81BB12BAA1
S113014087B38F6087BB88B38F6088BB87B38F7793
S113015087BB88B3806888BB00E010E0C0E0D0E0D3
S1130160B79902C0C0E0D0E0CE0179DF88B38E60D9
S113017088BB88B38E7F88BBE0917A00F0917B00C6
S1130180EE0FFF1FE05AFF4F808182BB8DEE92E09D
S11301900197F1F700C0000088B38D6088BB88B375
S11301A08D7F88BBE0917800F0917900EE0FFF1FFE
S11301B0E05AFF4F808182BB8DEE92E00197F1F708
S11301C000C0000088B38B6088BB88B38B7F88BB7A
S11301D0E0917600F0917700EE0FFF1FE05AFF4F99
S11301E0808182BB8DEE92E00197F1F700C00000A0
S11301F088B3876088BB88B3877F88BBE09174002D
S1130200F0917500EE0FFF1FE05AFF4F808182BB13
S11302108DEE92E00197F1F700C000000F5F1F4FD1
S11302200A30110509F09CCFAE014F5F5F4F9A0170
S1130230329522952F7023273F702327A7E4B3E03C
S113024016D0EC01D695C795D695C795D695C79582
S113025020E137E2C29FC001C39F900DD29F900D51
S11302601124EA01C81BD90B00E010E079CFA29F4A
S1130270B001B39FC001A39F01D0B29F700D811D37
S10D02801124911D0895F894FFCF96
S113028A3F0006005B004F0066006D007D0007001A
S107029A7F006F006E
S9030000FC
