S01100006C6573736F6E5F31382E73726563B7
S113000012C02CC02BC02AC029C028C027C026C0BB
S113001025C06BC023C022C021C020C005C11EC0A2
S11300201DC01CC01BC011241FBECFE5D4E0DEBF21
S1130030CDBF10E0A0E6B0E0ECE5F7E002C005902B
S11300400D92A637B107D9F720E0A6E7B0E001C0CA
S11300501D92A838B207E1F7D7D17EC3D1CFCF9391
S1130060DF93AC01EC01D695C795D695C7959E0153
S1130070ABE7B4E143D3FC01F695E795F093870031
S1130080E093860024E62E9FC0012F9F900D11243B
S11300909A01281B390BADECBCEC30D396958795AF
S11300A0969587959695879590938500809384007F
S11300B09A0124D3969587959695879596958795D5
S11300C09C01220F331F880F991F880F991F880FD7
S11300D0991F820F931F9A01281B390B30938300B9
S11300E020938200DF91CF9108951F920F920FB653
S11300F00F9211242F933F934F935F936F937F93AA
S11301008F939F93AF93BF93EF93FF938FE782BF38
S1130110809180009091810001969093810080935A
S11301208000049734F081E090E090938100809304
S1130130800080918000909181008130910539F593
S113014088B3866088BB88B38E7F88BBE0918600C5
S1130150F0918700EE0FFF1FE05AFF4F808182BBB2
S113016060917C0070917D0080917E0090917F0071
S113017020E030E040E251E45CD1882324F482B3EF
S1130180806882BB40C082B38F7782BB3CC0823020
S1130190910539F588B3856088BB88B38D7F88BBAA
S11301A0E0918400F0918500EE0FFF1FE05AFF4FAD
S11301B0808182BB60917C0070917D0080917E0083
S11301C090917F0020E030E040E251E4ECD18823BC
S11301D024F082B3806882BB16C082B38F7782BB5F
S11301E012C0039781F488B3836088BB88B38B7F84
S11301F088BBE0918200F0918300EE0FFF1FE05A6C
S1130200FF4F808182BBFF91EF91BF91AF919F918E
S11302108F917F916F915F914F913F912F910F90AB
S11302200FBE0F901F9018951F920F920FB60F924A
S11302301124CF92DF92EF92FF920F931F932F938B
S11302403F934F935F936F937F938F939F93AF935A
S1130250BF93EF93FF9384B195B14091780050918F
S1130260790060917A0070917B008A019B01080FEC
S1130270191F211D311DC901B80100937800109385
S1130280790020937A0030937B002091760030919E
S113029077002F5F3F4F30937700209376002A300A
S11302A031050CF475C02AE030E040E050E00AD299
S11302B0DA01C901880F991FAA1FBB1F880F991F54
S11302C0AA1FBB1FBC01CD01620F731F841F951FA2
S11302D0E2D020E030E040E85AE369D120E030E0A9
S11302E040E251E464D160937C0070937D0080937C
S11302F07E0090937F0020E030E044E352E453D149
S113030018161CF488B38F7788BB60917C007091B9
S11303107D0080917E0090917F0020E030E040E2FB
S113032052E487D088231CF488B3806888BBC090CB
S11303307C00D0907D00E0907E00F0907F0020E073
S113034030E040E251E4C701B60173D088231CF4C5
S113035064E670E002C06AE070E070937500609338
S11303607400072E000C880B990B95D0A7019601F9
S11303701ED163D0CB0173DE109277001092760009
S1130380109278001092790010927A0010927B00FB
S113039086B1806486B9FF91EF91BF91AF919F912F
S11303A08F917F916F915F914F913F912F911F9109
S11303B00F91FF90EF90DF90CF900F900FBE0F90B2
S11303C01F90189586B1806886B986B18F7D86B9ED
S11303D086B18B7F86B986B1836086B987B1806424
S11303E087B987B18F7787B987B18F7D87B987B18F
S11303F0837F87B987B1836087B986B1886086B9FE
S113040086B1806486B90895DDDF8FEF81BB12BAAF
S113041087B3876087BB88B3876088BB87B38068EE
S113042087BB82E083BF12BE89B7816089BF78949D
S1130430FFCF6CD008F481E0089594D088F09F57E2
S113044090F0B92F9927B751A0F0D1F0660F771F1C
S1130450881F991F1AF0BA95C9F712C0B13081F0FC
S11304609BD0B1E0089598C0672F782F8827B85F94
S113047039F0B93FCCF3869577956795B395D9F75D
S11304803EF490958095709561957F4F8F4F9F4F67
S11304900895E89409C097FB3EF490958095709573
S11304A061957F4F8F4F9F4F9923A9F0F92F96E9BC
S11304B0BB279395F695879577956795B795F11131
S11304C0F8CFFAF4BB0F11F460FF1BC06F5F7F4FCE
S11304D08F4F9F4F16C0882311F096E911C07723E0
S11304E021F09EE8872F762F05C0662371F096E8E9
S11304F0862F70E060E02AF09A95660F771F881FB8
S1130500DAF7880F9695879597F90895990F00085B
S1130510550FAA0BE0E8FEEF16161706E807F907D1
S1130520C0F012161306E407F50798F0621B730B6C
S1130530840B950B39F40A2661F0232B242B252BED
S113054021F408950A2609F4A140A6958FEF811D90
S1130550811D089557FD9058440F551F59F05F3F72
S113056071F04795880F97FB991F61F09F3F79F0D1
S113057087950895121613061406551FF2CF469553
S1130580F1DF08C0161617061806991FF1CF8695D5
S11305907105610508940895E894BB2766277727B9
S11305A0CB0197F90895B2DF08F48FEF08950BD0CB
S11305B078C069D028F06ED018F0952309F05AC09D
S11305C05FC01124EACFC6DFA0F3959FD1F3950F46
S11305D050E0551F629FF001729FBB27F00DB11DC3
S11305E0639FAA27F00DB11DAA1F649F6627B00D53
S11305F0A11D661F829F2227B00DA11D621F739F3C
S1130600B00DA11D621F839FA00D611D221F749F49
S11306103327A00D611D231F849F600D211D822F90
S1130620762F6A2F11249F5750408AF0E1F08823D7
S11306304AF0EE0FFF1FBB1F661F771F881F9150E4
S11306405040A9F79E3F510570F014C0A6CF5F3FFC
S1130650ECF3983EDCF3869577956795B795F79517
S1130660E7959F5FC1F7FE2B880F911D969587959F
S113067097F9089597F99F6780E870E060E008951E
S11306809FEF80EC089500240A94161617061806A6
S11306900906089500240A94121613061406050682
S11306A00895092E0394000C11F4882352F0BB0F13
S11306B040F4BF2B11F460FF04C06F5F7F4F8F4F76
S11306C09F4F0895052E97FB16F400940FD057FD05
S11306D005D020D007FC02D046F408C050954095C0
S11306E0309521953F4F4F4F5F4F089590958095DA
S11306F0709561957F4F8F4F9F4F0895A29FB001D2
S1130700B39FC001A39F01D0B29F700D811D11241E
S1130710911D0895A1E21A2EAA1BBB1BFD010DC059
S1130720AA1FBB1FEE1FFF1FA217B307E407F5079D
S113073020F0A21BB30BE40BF50B661F771F881F79
S1130740991F1A9469F760957095809590959B010F
S10F0750AC01BD01CF010895F894FFCF67
S113075C3F0006005B004F0066006D007D00070043
S109076C7F006F000A008B
S9030000FC
