S01600006C6573736F6E5F355F61727261792E7372656368
S113000012C024C023C022C021C020C01FC01EC0F3
S11300101DC01CC01BC01AC019C018C017C016C010
S113002015C014C013C011241FBECFE5D4E0DEBF39
S1130030CDBF10E0A0E6B0E0E6EBF0E002C0059032
S11300400D92A437B107D9F702D033C0D9CF8FEFBF
S113005081BB12BA80E090E011C0FC01EE0FFF1FDB
S1130060E05AFF4F208122BB2FE53AEE40E02150B9
S113007030404040E1F700C0000001968A3091050D
S113008064F388E090E011C0FC01EE0FFF1FE05A1A
S1130090FF4F208122BB2FE53AEE40E02150304053
S11300A04040E1F700C0000001971816190664F3F8
S10900B0D1CFF894FFCF4C
S11300B63F0006005B004F0066006D007D000700F0
S10700C67F006F0044
S9030000FC
