:1000000012C02CC02BC02AC029C028C00FC126C0D6
:1000100025C093C023C022C021C020C01FC01EC065
:100020001DC01CC01BC011241FBECFE5D4E0DEBF25
:10003000CDBF10E0A0E6B0E0EEE7F3E002C005902F
:100040000D92A437B107D9F720E0A4E7B0E001C0D2
:100050001D92A038B207E1F70DD18FC1D1CFCF9358
:10006000DF93AC01EC01D695C795D695C795D6958B
:10007000C7959E01A5ECB0E274D1FC01F295E29522
:10008000EF70EF27FF70EF27F0937F00E0937E0083
:1000900028EE33E0E29FC001E39F900DF29F900DA8
:1000A00011249A01281B390B3695279536952795EB
:1000B000ABE7B4E156D19695879590937D008093F8
:1000C0007C009A0136952795369527954AD19C0153
:1000D0003695279564E6629FC001639F900D1124B9
:1000E0009A01281B390BADECBCEC3BD1969587955A
:1000F000969587959695879590937B0080937A0047
:100100009A012FD19695879596958795969587957F
:100110009C01220F331F880F991F880F991F880F8A
:10012000991F820F931F9A01281B390B3093790076
:1001300020937800DF91CF9108951F920F920FB610
:100140000F9211248F939F93EF93FF9380917600EA
:1001500090917700019690937700809376000597B1
:1001600034F081E090E09093770080937600809166
:100170007600909177008130910589F488B38E6084
:1001800088BB88B38E7F88BBE0917E00F0917F00B2
:10019000EE0FFF1FE05AFF4F808182BB3EC08230CE
:1001A000910589F488B38D6088BB88B38D7F88BB47
:1001B000E0917C00F0917D00EE0FFF1FE05AFF4FB1
:1001C000808182BB2AC083309105A9F488B38B60FB
:1001D00088BB88B38B7F88BB82B3806882BBE09189
:1001E0007A00F0917B00EE0FFF1FE05AFF4F8081F5
:1001F000806882BB12C0049781F488B3876088BB93
:1002000088B3877F88BBE0917800F0917900EE0F8A
:10021000FF1FE05AFF4F808182BBFF91EF919F91BA
:100220008F910F900FBE0F901F9018951F920F92F5
:100230000FB60F9211248F939F9380917400909129
:100240007500019790937500809374001816190635
:1002500054F0109275001092740085B3816085BBD4
:100260008EB58D7F8EBD9F918F910F900FBE0F9099
:100270001F9018958FEF81BB12BA87B38F6087BB31
:1002800088B38F6088BB84B3816084BB85B38E7F65
:1002900085BB84B3817E84BB85B38E6185BB82E0E0
:1002A00083BF89B7816089BF8EB58B7F8EBD1DBC32
:1002B0001CBC84ED90E39BBD8ABD89B7806189BF7A
:1002C0008EB588608EBD7894809174009091750091
:1002D000C6DE999918C080917400909175000A96B5
:1002E00090937500809374008F30974234F08FE0C4
:1002F00097E290937500809374008BE792E90197E1
:10030000F1F700C000009A9915C080917400909197
:1003100075000A979093750080937400992324F0D8
:1003200010927500109274008BE792E90197F1F733
:1003300000C000009B9909C08EB582608EBD8BE71E
:1003400092E90197F1F700C000009C99BDCF8EB5EE
:100350008D7F8EBD8BE792E90197F1F700C0000019
:10036000B3CFA29FB001B39FC001A39F01D0B29FA2
:0E037000700D811D1124911D0895F894FFCF8A
:10037E003F0006005B004F0066006D007D00070029
:04038E007F006F007D
:00000001FF
