S01300006C6573736F6E5F31345F312E7372656329
S113000012C021C020C01FC01EC01DC01CC01BC008
S11300101AC0A1C018C017C016C015C014C013C0A0
S113002012C011C010C011241FBECFE5D4E0DEBF42
S1130030CDBF20E0A0E6B0E001C01D92AA36B20711
S1130040E1F706D133C1DCCF9C0198B3907F98BB14
S113005092B3907F92BB2115310521F021303105F7
S113006041F0089588B38F6088BB82B3836082BBFC
S1130070089588B3866088BB0895CF93DF93AC015D
S1130080EC01D695C795D695C795D695C7959E018B
S1130090A5ECB0E2FFD0FC01F295E295EF70EF27FA
S11300A0FF70EF27F0936900E093680028EE33E0D7
S11300B0E29FC001E39F900DF29F900D11249A01DD
S11300C0281B390B3695279536952795ABE7B4E170
S11300D0E1D09695879590936700809366009A0186
S11300E03695279536952795D5D09C013695279535
S11300F064E6629FC001639F900D11249A01281B3E
S1130100390BADECBCECC6D0969587959695879542
S11301109695879590936500809364009A01BAD070
S11301209695879596958795969587959C01220F28
S1130130331F880F991F880F991F880F991F820FEB
S1130140931F9A01281B390B30936300209362009C
S1130150DF91CF9108951F920F920FB60F92112441
S11301602F933F934F935F936F937F938F939F93BB
S1130170AF93BF93EF93FF938091600090916100E0
S113018001969093610080936000059734F081E0BC
S113019090E0909361008093600080916000909162
S11301A061008130910579F482B3806382BB88B3A6
S11301B0806288BB88B38F7E88BB809168009091F1
S11301C0690042DF34C08230910579F482B38063E0
S11301D082BB88B3806188BB88B38F7D88BB8091E4
S11301E066009091670030DF22C08330910579F476
S11301F088B3806388BB82B3806282BB82B38F7E04
S113020082BB80916400909165001EDF10C004974A
S113021071F488B3806388BB82B3806182BB82B38C
S11302208F7D82BB80916200909163000DDFFF910E
S1130230EF91BF91AF919F918F917F916F915F915A
S11302404F913F912F910F900FBE0F901F901895D3
S113025087B38F6087BB88B3807F88BB81B38F608F
S113026081BB82B3807F82BB87B3806387BB88B343
S1130270806388BB81B3806381BB82B3806382BBAC
S113028082E083BF89B7816089BF789489E090E078
S1130290F4DEFCCFA29FB001B39FC001A39F01D0A5
S11302A0B29F700D811D1124911D0895F894FFCF04
S9030000FC
